:100000000C94F0000C9418010C9418010C946108E5
:100010000C9461080C9461080C9418010C9418015C
:100020000C9418010C9418010C9418010C941801EC
:100030000C9418010C9418010C9418010C941801DC
:100040000C94C5100C9418010C9461040C943B049E
:100050000C9418010C9418010C9418010C941801BC
:100060000C94F1080C94180100407A10F35A00A087
:10007000724E18090010A5D4E80000E87648170071
:1000800000E40B54020000CA9A3B000000E1F505B1
:10009000000080969800000040420F000000A086FB
:1000A00001000000102700000000E803000000002D
:1000B0006400000000000A000000000001000000D1
:1000C00000002C76D888DC674F0823DFC1DFAE59EB
:1000D000E1B1B796E5E3E453C63AE651997696E87E
:1000E000E6C28426EB898C9B62ED407C6FFCEFBC02
:1000F0009C9F40F2BAA56FA5F490055A2AF75C932D
:100100006B6CF9676DC11BFCE0E40D47FEF520E662
:10011000B500D0ED902E0300943577050080841E45
:10012000080000204E0A000000C80C333333330FA0
:10013000986E12831141EF8D2114893BE65516CF3D
:10014000FEE6DB18D1844B381BF77C1D901DA4BB49
:10015000E424203284725E228100C9F124ECA1E5FE
:100160003D27005EBCE2613FDD83C29C7E20A3FD93
:100170001F41009D23BE46DB65F88C11AF32CA5784
:10018000E97400000000240027002A000000000895
:10019000000201000003040700000000000000004E
:1001A00000000000250028002B00000000002300B4
:1001B00026002900040404040404040402020202C8
:1001C000020203030303030301020408102040801A
:1001D0000102040810200102040810200516E5128F
:1001E00011241FBECFEFD8E0DEBFCDBF24E0ACEBC3
:1001F000B2E001C01D92A23EB207E1F712E0A0E01A
:10020000B1E0E6EAFDE302C005900D92AC3BB10718
:10021000D9F710E0CFEED0E004C02197FE010E9494
:100220009C1CCE3ED107C9F70E94F3120C94C61E47
:100230000C940000FC01538D448D252F30E0842F59
:1002400090E0821B930B541710F0CF9608950197FE
:100250000895FC01918D828D981761F0828DDF01E8
:10026000A80FB11D5D968C91928D9F5F9F73928FA9
:1002700090E008958FEF9FEF0895FC01918D828D9E
:10028000981731F0828DE80FF11D858D90E008956B
:100290008FEF9FEF0895FC01918D228D892F90E0C3
:1002A000805C9F4F821B91098F73992708958BE97A
:1002B00093E00E944B0121E0892B09F420E0822F7A
:1002C0000895FC01848DDF01A80FB11DA35ABF4F13
:1002D0002C91848D90E001968F739927848FA68945
:1002E000B7892C93A089B1898C9180648C93938D6C
:1002F000848D981306C00288F389E02D80818F7D5C
:1003000080830895EF92FF920F931F93CF93DF9313
:10031000EC0181E0888F9B8D8C8D981305C0E88956
:10032000F989808185FD24C0F62E0B8D10E00F5FCA
:100330001F4F0F731127E02E8C8DE8120CC00FB6E3
:1003400007FCFACFE889F989808185FFF5CFCE01D6
:100350000E946101F1CF8B8DFE01E80FF11DE35A80
:10036000FF4FF0820B8FEA89FB898081806207C092
:10037000EE89FF896083E889F989808180648083C0
:1003800081E090E0DF91CF911F910F91FF90EF906E
:100390000895CF93DF93EC01888D8823C9F0EA8913
:1003A000FB89808185FD05C0A889B9898C9186FD6E
:1003B0000FC00FB607FCF5CF808185FFF2CFA8896B
:1003C000B9898C9185FFEDCFCE010E946101E7CF05
:1003D000DF91CF91089580E090E0892B29F00E9471
:1003E000570181110C94000008952091460430912A
:1003F00047042817390771F490914404809145040B
:10040000981741F0E0914404F0E0E95FFC4F8081EF
:1004100090E008958FEF9FEF089508951F93CF9375
:10042000DF93DC015C962D913C915D9721153105A0
:1004300039F481E090E013969C938E9312973DC01F
:100440005196ED91FC91529750969C915097892F1F
:1004500080951FB75E964C915E9741FB772770F9A8
:1004600041FD6095F8944081772311F0492B01C03C
:1004700048234083E9012197F1F748E0508160FF6C
:1004800002C0592B01C058235083E9012197F1F78D
:100490006695415099F7772321F0908189238083D5
:1004A00003C08081982B90831FBF5C968D919C9197
:1004B0005D970197F1F721E030E0C901DF91CF911D
:1004C0001F91089520914604309147042817390759
:1004D00071F4809145042091440490E0805C9F4F2A
:1004E000821B910960E470E00E94331C089580E053
:1004F00090E0089520914604309147042817390769
:10050000B9F49091440480914504981789F0E091E2
:100510004404F0E0E95FFC4F80812091440430E026
:100520002F5F3F4F2F7333272093440490E00895AB
:100530008FEF9FEF0895089581E090E030910603DA
:1005400020910503321710F480E090E09195819599
:10055000910908958091060390910503891730F45D
:100560008F5F8093060380E090E008958FEF9FEF08
:1005700008958091050390E020910603821B910964
:100580000895089580E090E0089585ED8093BC0083
:100590008091BC0084FDFCCF10926D0308954091C2
:1005A000E002262F30E0240F311D21323105DCF42A
:1005B00020916D032430C9F4FC0180E090E086179F
:1005C00058F43091E0022191DC01A254BD4FA30FF9
:1005D000B11D2C930196F3CF8091E002680F6093D8
:1005E000E00280E0089581E0089582E00895CF92CE
:1005F000DF92EF92FF920F931F93CF93DF937C01D3
:10060000262F972F8A0180916E03882391F0C62FA1
:10061000D72F6E01C40ED51ECC15DD0571F0699182
:10062000D701ED91FC910190F081E02DC701099572
:10063000F3CF642F822F0E94CF02C801DF91CF91A8
:100640001F910F91FF90EF90DF90CF900895CF937F
:10065000DF931F92CDB7DEB7698320916E0322230B
:10066000D1F020919103203240F021E030E0FC01F4
:100670003383228380E090E015C080916F03E82FE0
:10068000F0E0E059FC4F998190838F5F80936F0376
:100690008093910305C061E0CE0101960E94CF02D4
:1006A00081E090E00F90DF91CF910895CF93FC010E
:1006B000C48121E020936E03C093900310926F03D6
:1006C000109291038385682B88E394E00E942703AE
:1006D00080919103813208F046C090916D03911191
:1006E000FCCF92E090936D0391E090936C039FEFA9
:1006F00090936B0310926A0380936903A0E7B3E0C1
:1007000029E433E0F9019E2F921B981718F49D916C
:100710009193F9CF1092480380914803CC0FC82BD6
:10072000C093480380914703813061F410924703DE
:10073000809148038093BB008091BC0083FDF8CF7B
:1007400085EC01C085EE8093BC0080916D03823002
:10075000E1F380916B038F3F31F080916B03803226
:1007600011F080916B0310926F031092910310921D
:100770006E03CF9108950F931F93CF938C01C62FD3
:100780000E9456036C2F6460C8010E9456036C2FB0
:100790006B7FC8010E94560383EC90E00197F1F74C
:1007A000CF911F910F9108950F931F93FC01028524
:1007B000138524853585401B510B620B730B77FD28
:1007C00002C0808901C080E01F910F910895FC0153
:1007D000428353836483758386819781A085B18525
:1007E000480F591F6A1F7B1F42875387648775878D
:1007F000089560E0FC0180810C94FC0F61E0FC0135
:1008000080810C94FC0F0F931F93CF93DF93EC0127
:10081000EE85FF85309709F009950E94B9106E8327
:100820007F83888799870A811B812C813D81DC0128
:10083000CB01800F911FA21FB31F8A879B87AC87B4
:10084000BD87DF91CF911F910F91089561157105BB
:1008500079F0FB0101900020E9F73197AF01461BC9
:10086000570BDC01ED91FC910280F381E02D09949E
:1008700080E090E008951F920F920FB60F9211241E
:100880002F933F934F935F936F937F938F939F9398
:10089000AF93BF93EF93FF938BE993E00E946101C5
:1008A000FF91EF91BF91AF919F918F917F916F9148
:1008B0005F914F913F912F910F900FBE0F901F901E
:1008C00018951F920F920FB60F9211242F938F93AA
:1008D0009F93EF93FF93E091AB03F091AC03808182
:1008E000E091B103F091B20382FD12C0908180913A
:1008F000B4038F5F8F732091B503821751F0E0919D
:10090000B403F0E0E556FC4F958F8093B40301C02B
:100910008081FF91EF919F918F912F910F900FBE4A
:100920000F901F901895FF920F931F93CF93DF9313
:100930001F92CDB7DEB78C01F62E962F907F692FD0
:10094000642BC80149830E94BB0380E1F89EB0017B
:1009500011244981642BC8010F90DF91CF911F9121
:100960000F91FF900C94BB0341E00E94930481E03F
:1009700090E00895CF92DF92EF92FF920F931F9332
:10098000CF93DF93CDB7DEB7A7970FB6F894DEBF4E
:100990000FBECDBF0E943F116B017C011092060378
:1009A0001092050310926F031092910310926D0341
:1009B00081E080936C031092470361E082E10E9422
:1009C000FC0F61E083E10E94FC0F8091B9008E7FF3
:1009D0008093B9008091B9008D7F8093B90088E43D
:1009E0008093B80085E48093BC001092B00480919D
:1009F000B504823018F098E09093B0048093B3046B
:100A000062E370E080E090E00E947F106091B604A5
:100A10008BEA94E00E94560368EE73E080E090E079
:100A20000E947F1060E38BEA94E00E94BB030BE41A
:100A300016E4C8010197F1F760E38BEA94E00E94A5
:100A4000BB03C8010197F1F760E38BEA94E00E94D1
:100A5000BB0383E592E00197F1F760E28BEA94E053
:100A60000E94BB036091B004606240E08BEA94E0B6
:100A70000E94930484E08093B10440E06CE08BEA30
:100A800094E00E94930440E061E08BEA94E00E94CD
:100A900093040BE31FE1C8010197F1F782E0809313
:100AA000B20440E066E08BEA94E00E94930440E0E8
:100AB00062E08BEA94E00E949304C8010197F1F789
:100AC00088E08093B60460E08BEA94E00E945603CD
:100AD00060E083E00E940F111BA21AA21DA21CA2BB
:100AE0001FA21EA28E010F5F1F4F22E044E0C7012C
:100AF000B6010E940D18BC01CE0182960E946C0BBB
:100B0000BE016E5D7F4FC8010E94B40B63E871E0C7
:100B1000C8010E94400BBC018BEA94E00E94B00C1B
:100B2000C8010E94830BCE0182960E94830B61E074
:100B300082E00E940F1168ED74E08BEA94E00E945D
:100B4000B00C80910001882309F4DEC020E030E081
:100B500048EC51E4C701B6010E942E1C87FD05C078
:100B600089E794E00E94F90304C089E794E00E94B9
:100B7000FE0360E080915B040E94FC0F83E090E044
:100B80000197F1F761E080915B040E94FC0F83E222
:100B900090E00197F1F760E080915B040E94FC0F08
:100BA00080915D0490915E049927FC01E853FE4F0B
:100BB0006491FC01EC54FE4FE491F0E0EE0FFF1F56
:100BC000E655FE4F8591949100915F041091600469
:100BD00020916104309162043F70462F0E94A01260
:100BE000611571058105910539F0DC01CB01019694
:100BF000A11DB11DBF7003C080E090E0DC018093B7
:100C0000630490936404A0936504B0936604892BF5
:100C10008A2B8B2B81F480915F0490916004A091CA
:100C20006104B09162048093630490936404A09380
:100C30006504B093660460916304709164048091CC
:100C40006504909166042AE330E040E050E00E94A1
:100C5000471C2093670430936804409369045093C1
:100C60006A0487E794E029323105410551051CF4F7
:100C70000E94F90302C00E94FE03E3E9F1E08491BF
:100C8000EFECF1E00491EBEBF1E014911123A1F012
:100C900081110E94D30FE12FF0E0EE0FFF1FE65508
:100CA000FE4FA591B491EC91E02331E020E009F4EE
:100CB00030E0832F922F02C080E090E09093BD023D
:100CC0008093BC02892B51F020E030E040EA51E4EF
:100CD000C701B6010E94D31A18162CF08FE694E0D3
:100CE0000E94FE0304C08FE694E00E94F90385E7AA
:100CF00094E00E94FE0383E794E00E94FE0381E7F4
:100D000094E00E94FE0318C089E794E00E94F90372
:100D100087E794E00E94F90385E794E00E94F903D5
:100D200083E794E00E94F90381E794E00E94F903CD
:100D30008FE694E00E94F903A7960FB6F894DEBF01
:100D40000FBECDBFDF91CF911F910F91FF90EF901C
:100D5000DF90CF900895DC0180E0615090F09D918C
:100D60009827E92FEF70F0E0EE59FE4F249192950D
:100D70009F70E92FF0E0EE58FE4FE4918E2F82270E
:100D8000ECCF0895FC0190810180F281E02DF89470
:100D90008181892B81832281892F80952823228339
:100DA000A7E0B0E01197F1F7218182238183A3E2CC
:100DB000B0E01197F1F780817894EFECF0E0319793
:100DC000F1F7982381E009F480E00895FC01908117
:100DD0000180F281E02D892F809560FF12C0F89488
:100DE0002281822382838181892B8183A3E2B0E0E7
:100DF0001197F1F78281982B9283789487ED90E098
:100E000011C0F8942281822382838181892B81837E
:100E1000AFEFB0E01197F1F78281982B928378942D
:100E20008FE090E00197F1F70895CF92DF92EF9273
:100E3000FF920F931F93CF93DF931F92CDB7DEB72F
:100E40006C01E62E08E010E0FF24F39461E08F2DA2
:100E50008E2109F460E0C60149830E94E606FF0C7A
:100E60000150110949810115110581F7411115C082
:100E7000F894D6011196ED91FC91129791818C9185
:100E80008095892381831196ED91FC91129792812F
:100E90008C9180958923828378940F90DF91CF91F4
:100EA0001F910F91FF90EF90DF90CF900895CF9218
:100EB000DF92EF92FF920F931F93CF93DF931F92D6
:100EC000CDB7DEB78C01F62E40E065E579830E9450
:100ED0001507CF2C7981D72E760188E0E80EF11C1A
:100EE000F60161916F0140E0C8010E941507CE1420
:100EF000DF04B1F70F90DF91CF911F910F91FF9019
:100F0000EF90DF90CF900895FC0190810180F281F5
:100F1000E02DF8948181292F209582238183789474
:100F20008DE743E050E0815021F1DA011197F1F7AC
:100F300030813923C1F3F8948281822382838181B5
:100F4000892B81837894ABE7B7E01197F1F7F89498
:100F5000818128232183A3E1B1E01197F1F78081FA
:100F6000982381E009F080E07894E3E6F6E0319799
:100F7000F1F708956F927F928F929F92AF92BF92F6
:100F8000CF92DF92EF92FF920F931F93CF93DF9355
:100F90001F92CDB7DEB78C01F42EFC0186819781BC
:100FA00059830E94570740E06EEBF80186819781D4
:100FB0000E9415076F2C5981752E5301F9E0AF0E71
:100FC000B11CF8018680978088E0C82ED12CEE24D1
:100FD000E394F12CC4010E94C2068111FE28EE0C9C
:100FE000F1E0CF1AD108B1F7F301F1923F01EA1510
:100FF000FB0539F7F801868197810E94840791E00B
:10100000813009F090E0892F0F90DF91CF911F91EF
:101010000F91FF90EF90DF90CF90BF90AF909F9097
:101020008F907F906F900895EF92FF920F931F9390
:10103000CF93DF93CDB7DEB729970FB6F894DEBF15
:101040000FBECDBFFB012081203169F17B018C01F6
:10105000FC01868197810E948407882311F1AE01EB
:101060004F5F5F4FB701C8010E94BA078823C9F0DC
:1010700068E0CE0101960E94AB069985891311C0E4
:101080008D818F3361F020F48F3159F489E00CC0E9
:101090008F3519F08F3739F004C08BE005C08AE036
:1010A00003C080E001C08CE029960FB6F894DEBF43
:1010B0000FBECDBFDF91CF911F910F91FF90EF90A9
:1010C00008951F920F920FB60F9211242F933F9302
:1010D0004F935F936F937F938F939F93AF93BF9340
:1010E000EF93FF93E0914604F0914704309709F4A1
:1010F00051C0968DA685B785858591FF04C09C91CA
:10110000892329F447C09C91892309F043C0A3890E
:10111000B4899C918589809589238C938689978948
:101120000197F1F7608D718DA685B785558538E0FB
:1011300020E0CB010197F1F7822F90E095958795FC
:10114000282F4C91452309F02068315091F7868D66
:1011500081FD20958091450490E001968F73992739
:1011600030914404381749F0A0914504B0E0A95FDC
:10117000BC4F2C938093450403C0868D8160868F7D
:10118000828D938D0197F1F7A389B4899C9185890C
:10119000892B8C93FF91EF91BF91AF919F918F918C
:1011A0007F916F915F914F913F912F910F900FBE63
:1011B0000F901F901895E0914604F0914704E817AE
:1011C000F90769F4A389B4899C918589809589235D
:1011D0008C93109247041092460481E0089580E0B9
:1011E00008951F920F920FB60F9211242F933F93E1
:1011F0004F935F936F937F938F939F93AF93BF931F
:10120000EF93FF938091B900887F803609F49CC0EA
:1012100068F5883209F45BC090F4803109F454C059
:1012200038F4882309F4F6C0883009F44DC0F6C0BC
:10123000883109F44CC0803209F45DC0EFC08034BD
:1012400009F468C048F4803309F455C0883309F0C4
:10125000E5C080936B03D8C0803509F44FC0883552
:1012600009F45DC0883409F0D9C0D6C0883909F4C2
:10127000C7C0A8F4883709F467C038F4883609F481
:1012800063C0803709F460C0C9C0883809F4B8C0A9
:10129000803909F45FC0803809F0C0C05BC0803B72
:1012A00009F486C038F4803A09F466C0883A09F433
:1012B0007FC0B4C0803C09F4A7C0883C09F4A4C036
:1012C000883B09F48AC0AAC08091480310C090915D
:1012D0006A0380916903981770F5E0916A0381E0D1
:1012E0008E0F80936A03F0E0E75BFC4F8081809370
:1012F000BB0085EC86C080936B038EC0E0916A03CF
:1013000081E08E0F80936A038091BB00F0E0E75B81
:10131000FC4F808390916A03809169036EC0E091D5
:101320006A0381E08E0F80936A038091BB00F0E036
:10133000E75BFC4F808380916C0381116DC081E07D
:101340008093470384EA61C083E080936D03109229
:101350000403CFCF80910403803208F051C0E091A4
:10136000040381E08E0F809304038091BB00F0E0C2
:10137000EC51FD4F8083BDCF85EC8093BC00109273
:101380006D0380910403803230F4E0910403F0E0B7
:10139000EC51FD4F10826091040370E0E091E20295
:1013A000F091E30284EE92E009951092040336C0B6
:1013B00084E080936D031092E1021092E002E091CC
:1013C000DE02F091DF0209958091E002811105C0F3
:1013D00081E08093E0021092BE02E091E10281E0A0
:1013E0008E0F8093E102F0E0E254FD4F8081809304
:1013F000BB009091E1028091E002981708F479CF48
:1014000085E88093BC000AC085EC8093BC001092F4
:101410006D0304C010926B030E94C502FF91EF910F
:10142000BF91AF919F918F917F916F915F914F91FC
:101430003F912F910F900FBE0F901F901895089518
:10144000CF92DF92EF92FF920F931F93CF93DF9390
:101450006C017A018B01C0E0D0E0CE15DF0589F088
:10146000D8016D918D01D601ED91FC910190F08133
:10147000E02DC6010995892B11F47E0102C0219649
:10148000ECCFC701DF91CF911F910F91FF90EF90AB
:10149000DF90CF9008950E94991EFC012481358130
:1014A000FB01448155812417350721F5FC0180811A
:1014B0009181FB0160817181009719F061157105BF
:1014C000A1F46115710549F0232BB1F0FB01808176
:1014D00090E09195819591090AC0009769F0232BBE
:1014E00059F0FC01808190E002C00E94A71E21E01B
:1014F000892B19F020E001C021E0822F08950F937D
:101500001F93CF93DF938C01EB01FC0180819181CC
:101510000097B1F0688179816115710579F0428198
:1015200053812C813D814217530740F00E94B01E29
:101530008C819D81F8019583848313C00E94371D9F
:1015400088819981F801918380838A819B8193832B
:1015500082838C819D8195838483198218821B826A
:101560001A821D821C82DF91CF911F910F910895E5
:10157000CF93DF93EC0188819981009711F00E944D
:10158000371D198218821D821C821B821A82DF91EC
:10159000CF9108950F931F93CF93DF93EC01888130
:1015A0009981009729F02A813B812617370788F413
:1015B0008B016F5F7F4F0E94CF1D009761F0998371
:1015C00088831B830A832C813D81232B11F4FC012A
:1015D000108281E001C080E0DF91CF911F910F91D7
:1015E0000895EF92FF920F931F93CF93DF93EC0137
:1015F0007B018A01BA010E94CA0A811104C0CE018E
:101600000E94B80A07C01D830C83B70188819981A5
:101610000E94B01ECE01DF91CF911F910F91FF90DC
:10162000EF900895EF92FF920F931F93CF93DF9364
:10163000FC01248135816115710511F480E019C028
:1016400041155105A9F07B01EC018A01020F131F1E
:10165000B8010E94CA0A882389F3288139818C81C4
:101660009D81B701820F931F0E94B01E1D830C83C2
:1016700081E0DF91CF911F910F91FF90EF9008953E
:10168000CF93DF93EC016115710561F0FB010190CF
:101690000020E9F73197AF01461B570B0E94120B50
:1016A000811103C0CE010E94B80ACE01DF91CF9113
:1016B0000895CF93DF93EC01FB0144815581608154
:1016C00071810E94120B811103C0CE010E94B80AE1
:1016D000CE01DF91CF910895CF93DF93EC01611597
:1016E000710559F0FB0101900020E9F73197AF0136
:1016F000461B570B0E94F10A02C00E94B80ACE0195
:10170000DF91CF910895FC01808191810C94371D68
:101710000F931F93CF93DF93CDB7DEB762970FB6CA
:10172000F894DEBF0FBECDBF8C01CB01F801118252
:101730001082138212821582148250E0BE016F5F04
:101740007F4F0E942D18BE016F5F7F4FC8010E941E
:101750006C0B62960FB6F894DEBF0FBECDBFDF9163
:10176000CF911F910F910895FB01DC0111961C92FE
:101770001E9213961C921E92129715961C921E9200
:1017800014978617970749F060817181611571057B
:1017900021F0448155810C94F10A0895FC011182D5
:1017A000108213821282158214826115710551F024
:1017B000FB0101900020E9F73197AF01461B570B61
:1017C0000C94F10A08950F931F93CF93DF93EC01CC
:1017D0000E94B910688779878A879B87E881F98199
:1017E0000284F385E02DCE01099597FF17C00E9472
:1017F000B910088519852A853B85DC01CB01801B42
:10180000910BA20BB30B0C811D812E813F818017A0
:101810009107A207B30710F38FEF9FEFDF91CF91EE
:101820001F910F9108954F925F926F927F928F92C6
:101830009F92AF92BF92CF92DF92EF92FF920F935F
:101840001F93CF93DF938C01EB0186E0849F4001CF
:10185000859F900C1124860E971EFB01E815F90553
:1018600008F582819381892B21F13696F7CF60812B
:10187000718144815581DB01A40FB51F2C91022E8B
:10188000000C330B8217930711F54F5F5F4F5583A1
:101890004483228133814217530759F03696E81565
:1018A000F90528F3C8010E94E30B97FD46C0FE012D
:1018B000F6CFEC1BFD0BF595E7952BEA3AEAE29F94
:1018C000C001E39F900DF29F900D112438C0411587
:1018D000510521F3C480D58096012150310935830B
:1018E0002483DB01A20FB31FAC910A2E000CBB0BAB
:1018F0008A179B07F9F421153105C9F05B017A01BC
:10190000E21AF30AE60EF71E412C512CD5016D9018
:101910005D01D7017D907D01671006C0BFEF4B1AB6
:101920005B0A4216530690F34216530699F6D58287
:10193000C482B4CF232B71F6B1CF8FEF9FEFDF912D
:10194000CF911F910F91FF90EF90DF90CF90BF90BC
:10195000AF909F908F907F906F905F904F90089581
:10196000DC01ED91FC91DB0114964D915C91159792
:101970006D917C910280F381E02D09943FB7F8943A
:101980008091970390919803A0919903B0919A0345
:1019900026B5A89B05C02F3F19F00196A11DB11DCA
:1019A0003FBFBA2FA92F982F8827820F911DA11D05
:1019B000B11DBC01CD0142E0660F771F881F991F42
:1019C0004A95D1F708950F931F93CF93DF93CDB727
:1019D000DEB76D970FB6F894DEBF0FBECDBF8C019A
:1019E000FC01848195811B8A1A8A1D8A1C8A1F8AA0
:1019F0001E8A4AE0BE016F5F7F4F0E944318BE01FE
:101A00006F5F7F4FCE0142960E946C0B61E672E0E1
:101A1000CE0101960E94CE0BBE016E5E7F4FCE01BD
:101A200001960E94590BBC01CE0148960E94B40B4E
:101A3000CE0101960E94830BCE0142960E94830B39
:101A4000BE01685E7F4FCE0142960E94B40B21E03A
:101A500048EE53E0BE016E5E7F4FCE0101960E94BC
:101A60002812CE0101960E94830BCE0142960E945D
:101A7000830BB801CE0142960E94B40B21E048EEE0
:101A800053E0BE016E5E7F4FCE0101960E94281288
:101A9000CE0101960E94830BCE0142960E94830BD9
:101AA000CE0148960E94830B6D960FB6F894DEBF68
:101AB0000FBECDBFDF91CF911F910F910895CF93AE
:101AC000DF93BC018BE993E00E942604EC0166EAF7
:101AD00071E08BE993E00E9426048C0F9D1FDF913B
:101AE000CF910895AF92BF92CF92DF92EF92FF9283
:101AF0000F931F93CF93DF931F92CDB7DEB75C0197
:101B0000D62EE72EFC018585811105C0C5010E94F6
:101B10008407811106C0F50113861586148680E0BE
:101B200065C040E060EFC5010E94150701E0F12C9F
:101B3000C12C11E0C5010E94C206682FC50169834E
:101B40000E94C2066981613019F48130B9F433C052
:101B50004F2D50E068131BC0F5018385181730F432
:101B6000E40FF51F8381802349F402C0181731F078
:101B700060E0193058F4F501148708C0F501EF0D45
:101B8000F11D8381802B838361E009C0C12EF501A3
:101B9000E40FF51F9381802F809589238383C501EE
:101BA0000E94E6061F5F000F11F4F39401E0F7E0D6
:101BB000FF1508F0BFCF113408F4ADCFF501C3868F
:101BC000C11002C081E08587F5018381882309F473
:101BD000A2CFD5011396ED2DFE2D9501255F3F4F28
:101BE0008D918193A217B307D9F781E00F90DF9110
:101BF000CF911F910F91FF90EF90DF90CF90BF900A
:101C0000AF900895EF92FF920F931F93CF93DF93BE
:101C100000D0CDB7DEB78C017B0168EA71E00E948D
:101C2000CE0BC7010E94E30B97FD0EC08D309105CE
:101C300059F089831A8241E050E0BE016F5F7F4F07
:101C4000C8010E94120BEDCFC8010F900F90DF91D9
:101C5000CF911F910F91FF90EF900895EF92FF9217
:101C60000F931F93CF93DF93CDB7DEB7A4970FB633
:101C7000F894DEBF0FBECDBF8C017B0168EA71E036
:101C8000CE014F960E94CE0B6FE672E0CE01019618
:101C90000E94CE0B20E040ED57E0BE016F5F7F4F0A
:101CA000CE0107960E942812CE0107960E94830B50
:101CB000CE0101960E94830BB701CE0143960E948C
:101CC000B40BB801CE0149960E94B40B66E772E0EE
:101CD000CE0101960E94CE0BBE01675E7F4FCE0102
:101CE00001960E94590B61E872E00E94400BBE0110
:101CF0006D5E7F4F0E94590B63E872E00E94400BBB
:101D0000BC01CE0107960E94B40B20E048E853E1E5
:101D1000BE01695F7F4FCE010D960E942812CE0151
:101D20000D960E94830BCE0107960E94830BCE0175
:101D300001960E94830BCE0149960E94830BCE012F
:101D400043960E94830B4AE061E070E0CE01079663
:101D50000E94880B65E872E0CE0101960E94CE0BCE
:101D6000BE01695F7F4FCE0101960E94590BBC01F5
:101D7000CE010D960E94B40B20E048EE53E0BE0168
:101D8000635F7F4FCE0143960E942812CE01439697
:101D90000E94830BCE010D960E94830BCE0101960B
:101DA0000E94830BCE0107960E94830B60E972E0CC
:101DB000CE0101960E94CE0B21E048EE53E0BE0119
:101DC0006F5F7F4FCE0107960E942812CE010796C3
:101DD0000E94830BCE0101960E94830B4AE061E0D2
:101DE00070E0CE0107960E94880B69E972E0CE018F
:101DF00001960E94CE0BBE01695F7F4FCE01019616
:101E00000E94590BBC01CE010D960E94B40B20E03C
:101E100048EE53E0BE01635F7F4FCE0143960E94C0
:101E20002812CE0143960E94830BCE010D960E948C
:101E3000830BCE0101960E94830BCE0107960E9470
:101E4000830B4AE060E570E0CE0107960E94880BA4
:101E500064EA72E0CE0101960E94CE0BBE01695F7A
:101E60007F4FCE0101960E94590BBC01CE010D9609
:101E70000E94B40B20E048EE53E0BE01635F7F4F49
:101E8000CE0143960E942812CE0143960E94830BF6
:101E9000CE010D960E94830BCE0101960E94830B0A
:101EA000CE0107960E94830BCE014F960E94830BB2
:101EB000A4960FB6F894DEBF0FBECDBFDF91CF91D1
:101EC0001F910F91FF90EF900895CF92DF92EF92C4
:101ED000FF920F931F93CF93DF9300D000D000D0D9
:101EE000CDB7DEB7CDB6DEB6DC011496ED90FC9032
:101EF000159797012F5F3F4FEDB7FEB7E21BF30B2E
:101F00000FB6F894FEBF0FBEEDBF0DB71EB70F5F43
:101F10001F4F232BA1F00115110589F0E114F104E5
:101F200019F4D8011C920BC0FC0160817181A701DA
:101F3000C8010E94B71EF801EE0DFF1D10828091AE
:101F4000B7049091B804F80101900020E9F73197A7
:101F5000E01BF10BBE016F5F7F4F26E0DB011D929E
:101F60002A95E9F71A830983FC83EB8341E050E06B
:101F70000E94130C21E0892B09F020E0822F0FB67C
:101F8000F894DEBE0FBECDBE26960FB6F894DEBF27
:101F90000FBECDBFDF91CF911F910F91FF90EF90BA
:101FA000DF90CF900895833081F028F4813099F04C
:101FB0008230A1F008958730A9F08830B9F08430DC
:101FC000D1F4809180008F7D03C0809180008F7755
:101FD00080938000089584B58F7702C084B58F7D8B
:101FE00084BD08958091B0008F7703C08091B000C8
:101FF0008F7D8093B00008951F93CF93DF93282F98
:1020000030E0F901E457FE4F8491F901E853FE4FA7
:10201000D491F901EC54FE4FC491CC23C9F0162F92
:1020200081110E94D30FEC2FF0E0EE0FFF1FE0565E
:10203000FE4FA591B4918FB7F894111105C09C91F2
:10204000ED2FE095E92302C0EC91ED2BEC938FBFCF
:10205000DF91CF911F910895CF93DF9390E0FC0122
:10206000E853FE4F2491FC01EC54FE4F84918823E9
:1020700061F190E0880F991FFC01EE57FE4FC5916A
:10208000D491FC01E056FE4FA591B491611109C0B5
:102090009FB7F8948881209582238883EC912E2322
:1020A0000BC0623061F49FB7F8943881822F80951D
:1020B00083238883EC912E2B2C939FBF06C08FB770
:1020C000F894E8812E2B28838FBFDF91CF9108955C
:1020D0008E3008F08E508770806480937C008091F1
:1020E0007A00806480937A0080917A0086FDFCCF2C
:1020F000809178002091790090E0922B08958F9242
:102100009F92AF92BF92CF92DF92EF92FF926B01BC
:102110007C010E94BE0C4B015C01C114D104E1049E
:10212000F104F1F00E94BE0CDC01CB018819990981
:10213000AA09BB09883E9340A105B10570F321E0CF
:10214000C21AD108E108F10888EE880E83E0981ED3
:10215000A11CB11CC114D104E104F10419F7DDCFB5
:10216000FF90EF90DF90CF90BF90AF909F908F90B7
:1021700008952FB7F8946091930370919403809120
:102180009503909196032FBF08951F920F920FB65B
:102190000F9211242F933F938F939F93AF93BF93ED
:1021A0008091930390919403A0919503B09196032D
:1021B0003091920323E0230F2D3720F40196A11DC7
:1021C000B11D05C026E8230F0296A11DB11D209365
:1021D00092038093930390939403A0939503B093F9
:1021E00096038091970390919803A0919903B091E1
:1021F0009A030196A11DB11D8093970390939803B4
:10220000A0939903B0939A03BF91AF919F918F913F
:102210003F912F910F900FBE0F901F901895CF9365
:10222000DF93CDB7DEB728970FB6F894DEBF0FBEA9
:10223000CDBF28E0E7E0F1E0DE01119601900D92BC
:102240002A95E1F72091B304261710F46FEF620F7F
:10225000FE013196E60FF11DE60FF11D9081682F0A
:10226000690F606840E08BEA94E028960FB6F89416
:10227000DEBF0FBECDBFDF91CF910C9493048F9240
:102280009F92AF92BF92CF92DF92EF92FF920F9305
:102290001F93CF93DF93CDB7DEB729970FB6F8948E
:1022A000DEBF0FBECDBF0091870410918804D80116
:1022B00016968D919C9117970E94840740E06CECD4
:1022C000F801868197810E941507D8014C9164E43A
:1022D00016968D919C9117970E941507F80182819F
:1022E0008823E1F1E181E950E33040F4F0E0EE0FC2
:1022F000FF1FE15FFE4FE080F18004C0FEEEEF2E95
:10230000F2E0FF2ED80113968C911397882301F1E8
:102310008C9181111DC00E94B9104B015C016701B5
:10232000FF0CEE08FF08F801868197810E94C20623
:102330008130A1F00E94B910DC01CB018C199D09FC
:10234000AE09BF0988159905AA05BB0560F306C04B
:10235000B701FF0C880B990B0E947F100091870436
:1023600010918804D80116968D919C9117970E9420
:102370008407882309F456C0AE014F5F5F4F6DE7B5
:1023800074E0C8010E94BA07882309F44BC068E0D2
:10239000CE0101960E94AB069985891343C06981DD
:1023A000B8E06B9FB00111248A81282F30E0322FD2
:1023B0002227330F330F330F262B372B80917D04C9
:1023C0008031C9F4688570E08F81FB01E81BF10959
:1023D000CF019695982F8827979587950E94331C53
:1023E00060517109207F53E0220F331F5A95E1F7A6
:1023F000620F731F01C0B9016138F4EE7F076CF002
:10240000072E000C880B990B0E94DA1A20E030E0AE
:1024100040E05CE30E94391B08C060E070E08EEF92
:1024200092EC03C060E874EEE7CF29960FB6F894FB
:10243000DEBF0FBECDBFDF91CF911F910F91FF90F7
:10244000EF90DF90CF90BF90AF909F908F900895C6
:10245000BF92CF92DF92EF92FF920F931F93CF9391
:10246000DF9300D000D000D0CDB7DEB78C017B0168
:102470006A01B22E68EA71E00E94CE0BB701CE016C
:1024800001960E94B40B66EA71E0CE0101960E94AB
:10249000400BBC018091B7049091B8040E94B00C2D
:1024A000CE0101960E94830B0E94B9100D2C000CE6
:1024B000EE08FF08C60ED71EE81EF91E0E94B910CE
:1024C0006C157D058E059F0518F58091B7049091D8
:1024D000B804DC01ED91FC910084F185E02D0995B3
:1024E000892B61F38091B7049091B804DC01ED91E0
:1024F000FC910284F385E02D099589831A8241E0DD
:1025000050E0BE016F5F7F4FC8010E94120BDDCF0C
:10251000BB2029F0B8018BE993E00E94B00CC80100
:1025200026960FB6F894DEBF0FBECDBFDF91CF91D8
:102530001F910F91FF90EF90DF90CF90BF90089583
:10254000CF92DF92EF92FF920F931F93E82FF92F14
:1025500005C0015011092109310961F190819623CB
:102560009417B9F305C0015011092109310911F17E
:10257000908196239413F7CFC12CD12CE12CF12C10
:102580000AC08FEFC81AD80AE80AF80A0C151D0508
:102590002E053F0579F080818623841791F36C2DF9
:1025A0007D2D8E2D9F2D1F910F91FF90EF90DF902D
:1025B000CF90089560E070E080E090E01F910F916F
:1025C000FF90EF90DF90CF90089583E591E0909396
:1025D000BA048093B90489EB94E00E94DB0888ED8B
:1025E00094E00C94830BCF93DF93CDB7DEB7E997DC
:1025F0000FB6F894DEBF0FBECDBF789484B582606D
:1026000084BD84B5816084BD85B5826085BD85B596
:10261000816085BD80916E00816080936E00109214
:10262000810080918100826080938100809181008F
:102630008160809381008091800081608093800020
:102640008091B10084608093B1008091B00081607E
:102650008093B00080917A00846080937A008091AA
:102660007A00826080937A0080917A008160809302
:102670007A0080917A00806880937A001092C1007D
:10268000E091AB03F091AC0382E08083E091A7037B
:10269000F091A8031082E091A903F091AA038FECB6
:1026A00080831092B303E091AF03F091B00386E012
:1026B0008083E091AD03F091AE03808180618083DF
:1026C000E091AD03F091AE03808188608083E0915A
:1026D000AD03F091AE03808180688083E091AD030B
:1026E000F091AE0380818F7D808366E871E0CE013A
:1026F00001967C010E94CE0B6FE871E0CE018296BC
:102700000E94CE0BB701CE0182960E942E0ECE0102
:1027100082960E94830BC7010E94830B68EA71E0D6
:10272000CE0182960E94CE0B6EE971E08091B704D3
:102730009091B8040E9426040E94B9102B013C011C
:10274000A8EE4A0EA3E05A1E611C711C86E0B82E4A
:1027500009EA11E09DE0C92ED12C0E94B910641540
:1027600075058605970548F58091B7049091B804E2
:10277000DC01ED91FC910084F185E02D0995892B18
:1027800061F38091B7049091B804F7012B2D119259
:102790002A95E9F71A830983DC82CB8241E050E075
:1027A000B7010E94130C892BF9F66091B704709160
:1027B000B804C7010E94020E05C068EA71E0C701B3
:1027C0000E94CE0BCE0182960E94830BB70188ED4A
:1027D00094E00E947F0AC7010E94830B0091870446
:1027E00010918804D8011696ED91FC9117971386E5
:1027F00015861486DF011B9633961E92AE17BF070F
:10280000E1F7F80114821582DD24D394B701F801B1
:10281000868197810E94720D882309F45CC067E06D
:10282000C7010E94AB0698858913F0CFD8018C911F
:10283000811125C016968D919C9117970E9484074F
:10284000B701F801868197810E94570740E064EB49
:10285000D80116968D919C9117970E941507F80143
:10286000868197810E94C206C82ED80116968D9146
:102870009C9117970E948407CC2009F4C3C1F801EA
:10288000C180B701C8010E9414088C1520F4D8013A
:1028900011968C9104C0B701C8010E941408F80178
:1028A000818384818F5F84838981883261F030F4F1
:1028B000803149F0823209F0A9CF05C08B3319F07D
:1028C000823409F0A3CFD80115968C9115978F5FAC
:1028D00015968C939BCF8091870490918804DC019E
:1028E0001696ED91FC911797138615861486DF01D5
:1028F0001B9633961E92AE17BF07E1F76DE774E0A3
:10290000FC01868197810E94720D882329F067E07F
:102910008DE794E00E94AB0687EB91E00E945F0D8B
:1029200083E190E090937C0480937B040E94681084
:102930008B3F910524F086ED91E00E945F0D8AEBBC
:1029400094E0909357048093560480ED97E0A0E0C4
:10295000B0E080934A0490934B04A0934C04B0934E
:102960004D0480914E0490914F04A0915004B09179
:1029700051048053984FAF4FBF4F809352049093B0
:102980005304A0935404B093550460E087E00E9480
:102990002C10BB24B3940E94B910AB01BC0188E495
:1029A00094E00E94D403882321F088E494E00E94FC
:1029B000030468EA71E0CE01C4960E94CE0B8091B8
:1029C000B7049091B804DC01ED91FC910084F1858D
:1029D000E02D0995892B09F40EC160EF71E0C70164
:1029E0000E94CE0BC7010E94650F182FC7010E94DD
:1029F000830B112309F4FFC06091B7047091B804F0
:102A0000C7010E94020EB701CE01C4960E947F0A40
:102A1000C7010E94830BBE016C5C7F4FCE018E9676
:102A20000E94B40B67EF71E08BE993E00E942604EB
:102A3000BE01625D7F4F8BE993E00E94B00C63E1C1
:102A400072E08BE993E00E9426046BE172E0C7011B
:102A50000E94CE0BB701CE018E960E944D0A182F10
:102A6000C7010E94830B112319F0B092000112C01C
:102A700061E372E0C7010E94CE0BB701CE018E96D2
:102A80000E944D0A182FC7010E94830B112361F089
:102A90001092000161E272E0C7010E94CE0BC701F3
:102AA0000E94E30CC70143C065E372E0C7010E94C6
:102AB000CE0BB701CE018E960E944D0A182FC7018A
:102AC0000E94830B1123B1F10E943F111BA21AA295
:102AD0001DA21CA21FA21EA2870122E044E00E94A8
:102AE0000D18BC01CE0182960E946C0B6AE372E065
:102AF000C7010E94CE0BBE016E5D7F4FC7010E94D1
:102B0000590B6EE272E00E94400BBC01CE01889628
:102B10000E94B40BCE0188960E94E30CCE018896E9
:102B20000E94830BC7010E94830BCE0182960E94F4
:102B3000830B5DC066E472E0C7010E94CE0BB70153
:102B4000CE018E960E944D0A182FC7010E94830B5A
:102B5000112309F448C00E94B9102B013C0100E088
:102B600010E0C12CD12CDC01CB0184199509A609F8
:102B7000B709893E9340A105B10534F5BFEFCB1AE3
:102B8000DB0A80917B040E946810BC01990F880BBE
:102B9000990B0E94DA1A20E030E048EC52E40E94DF
:102BA000391B20E030E040E85AE30E94391B20E066
:102BB00030E040EA52E40E94D31A87FF02C00F5F60
:102BC0001F4F0E94B910CFCF0115110521F061E010
:102BD000C016D10609F460E070E04AE0CE018296AA
:102BE0000E94880B83CF8AE492E00E945F0DCE01A1
:102BF0008E960E94830BCE01C4960E94830B0E9486
:102C0000EB01C9CED801DC923ACECF92DF92EF929F
:102C1000FF92CF9310929E0310929D0328EEC22E36
:102C200023E0D22EE12CF12CC0929F03D092A0037E
:102C3000E092A103F092A20389E191E090939C03BA
:102C400080939B0385EC90E09093A8038093A70367
:102C500084EC90E09093AA038093A90380EC90E029
:102C60009093AC038093AB0381EC90E09093AE0320
:102C70008093AD0382EC90E09093B0038093AF0318
:102C800086EC90E09093B2038093B1031092B4036A
:102C90001092B5031092B6031092B70310923B0442
:102CA00010923A04C0923C04D0923D04E0923E045B
:102CB000F0923F048BE291E09093390480933804C2
:102CC00064EB72E088ED94E00E94CE0B1092BC049D
:102CD0001092BB04C092BD04D092BE04E092BF0427
:102CE000F092C00483E591E09093BA048093B90414
:102CF0001092D0041092CF041092D2041092D104FA
:102D00001092D4041092D3041092D6041092D504D9
:102D10006091D7046E7F6D7F6093D7046695617074
:102D200081E0682783E00E94FC0F61E083E00E945D
:102D30002C10EBECF1E0E491E093C904E7EBF1E057
:102D4000E491F0E0EE0FFF1FE056FE4F8591949165
:102D50009093CB048093CA0460E082E00E942C1020
:102D60008091D70481FD04C061E082E00E94FC0FE5
:102D700082E08093C504EAECF1E0E491E093C604BC
:102D8000E6EBF1E0E491F0E0EE0FFF1FE655FE4FB9
:102D9000859194919093C8048093C70489EB94E043
:102DA0009093B8048093B7048DEC90E09093D60490
:102DB0008093D50425E530E03093D0042093CF04F0
:102DC0002BEC30E03093D2042093D10420E930E0A2
:102DD0003093D4042093D30420916800246020937E
:102DE00068002DE630E03093CD042093CC0424E03D
:102DF0002093CE040197F1F7809146049091470407
:102E000024E0893B9207E1F0009711F00E94DB0873
:102E10008091D7048E7F8093D7041092450410923E
:102E2000440489EB94E09093470480934604E09136
:102E3000CC04F091CD0490818091CE04892B8083C5
:102E40001092AE041092AD0487E491E09093AC042C
:102E50008093AB0487E28093AF0484E18093B40451
:102E600084E08093B5041092B60460E086E00E948E
:102E70002C10EEECF1E0E491E0939D04EAEBF1E03C
:102E8000E491F0E0EE0FFF1FE655FE4F859194911F
:102E900090939F0480939E041092A8041092AA0419
:102EA0001092A904E8EAF4E0129284E0E03AF8070C
:102EB000D9F78DE994E09093900480938F04109259
:102EC0008D0410928E041092890489E080938A0404
:102ED000C1E0C0938B04C0938C0410929C041092A8
:102EE0009B0489E894E0909388048093870461E0D0
:102EF0008DE00E942C108DE090E090937A048093F6
:102F0000790461E08CE00E942C108CE090E09093BA
:102F100078048093770461E08BE00E942C108BE0B2
:102F200090E0909376048093750461E08AE00E94BB
:102F30002C108AE090E0909374048093730461E015
:102F400089E00E942C1089E090E0909372048093B5
:102F5000710461E088E00E942C1088E090E090937A
:102F6000700480936F0461E085E00E942C1060E0A3
:102F700084E00E942C1085E090E090935C048093A4
:102F80005B0484E090E090935E0480935D0488EBA2
:102F90009BE0A0E0B0E080935F0490936004A09376
:102FA0006104B09362048DE391E0909349048093AF
:102FB0004804C0935804109257041092560410927B
:102FC00052041092530410925404109255040E941B
:102FD000B91060934E0470934F0480935004909303
:102FE000510428E434E030935A0420935904109299
:102FF0004A0410924B0410924C0410924D046093BA
:103000005204709353048093540490935504CF91C9
:10301000FF90EF90DF90CF900895EF920F931F9362
:10302000CF93DF93E80147FD02C034E001C034E1F3
:10303000E42F440FFF0BF7FF03C0F195E195F10971
:10304000E32E022F2E2FAE010E945D18CE01DF91DC
:10305000CF911F910F91EF9008954532510520F4C3
:10306000423010F00C943818FB011082CB01089507
:10307000BB274A3031F4992322F4BDE29095819523
:103080009F4F0C944418BB27FB015527AA27880F94
:10309000991FAA1FA41710F0A41B83955051B9F7CC
:1030A000A05DAA3308F0A95DA193009779F7B1114B
:1030B000B1931192CB010C94C31A4F925F926F920D
:1030C0007F929F92AF92BF92CF92DF92EF92FF9248
:1030D0000F931F93CF93DF93CDB7DEB729970FB62A
:1030E000F894DEBF0FBECDBF6A01122FB02E2BE3C6
:1030F000201720F0FF24F394F00E02C0BCE3FB2E57
:103100000F2D27E0AE014F5F5F4F0E94EB19AC011E
:103110008981982F9970913031F0E1FC06C0E0FE72
:1031200006C090E205C09DE203C09BE201C090E0B2
:10313000EE2DE07183FF3CC0911102C083E001C01D
:1031400084E0811718F4212F281B01C020E0E11131
:103150000BC0F601822F30E2882319F031938150A1
:10316000FBCFC20ED11C20E0992329F0D6019C93FD
:10317000F60131966F01C6010396E2FE0AC03EE4F5
:10318000D6013C9341E411964C93119712963C93CF
:1031900006C03EE6F601308341E641833283FC01FE
:1031A000322F40E2332309F442C041933150FACF29
:1031B00082FF44C0911102C083E001C084E0811706
:1031C00018F4212F281B01C020E0E1110BC0F601EB
:1031D000822F30E2882319F031938150FBCFC20E49
:1031E000D11C20E0992329F0D6019C93F601319659
:1031F0006F01C6010396E2FE0BC039E4D6013C9391
:103200003EE411963C93119736E412963C9307C026
:1032100039E6F60130833EE6318336E63283FC013F
:10322000322F40E2332319F041933150FBCFFC01A0
:10323000E20FF11D10828EEF9FEFB7C0F1E0911108
:1032400001C0F0E06F2F70E01416150624F49A0107
:103250002F5F3F4F02C021E030E0260F371FBB2019
:1032600029F06B2D70E06F5F7F4F02C060E070E06F
:10327000260F371F612F70E0261737071CF4121B2B
:10328000212F01C020E03E2D387159F4D601322F94
:1032900060E2332319F06D933150FBCFC20ED11C85
:1032A00020E0FF2331F0D6019C93B6016F5F7F4F82
:1032B0006B01E1110BC0F601922F30E3992319F055
:1032C00031939150FBCFC20ED11C20E09F2D940F63
:1032D0003A81782F7071A72E84FF03C0313309F42F
:1032E0009150191624F4993018F098E001C091E03B
:1032F000E42F852F57FF02C0E0E080E06E2F782F8B
:10330000E0E0F0E0AEE29A2E3A01691A71082A0173
:10331000461A570A0B2D10E01195019511096F3FC0
:103320008FEF780729F4D6019C92C60101966C01B3
:103330004617570784F0661677066CF47F01E40C95
:10334000F51CA1E0B0E0AC0FBD1FEA0EFB1ED701DB
:103350001196BC9002C090E3B92E6150710931966C
:10336000C60101967C016017710724F0D601BC925A
:103370006C01D5CF6417750741F4363320F435332B
:1033800021F4A11002C081E3B82EF601B082F7014A
:10339000822F90E2882319F091938150FBCFF7019F
:1033A000E20FF11D108280E090E029960FB6F894AC
:1033B000DEBF0FBECDBFDF91CF911F910F91FF9068
:1033C000EF90DF90CF90BF90AF909F907F906F90E5
:1033D0005F904F900895283008F027E03327DA01F6
:1033E000990F311D87FD916000966105710539F4D3
:1033F00032602E5F3D9330E32A95E1F708959F3FB9
:1034000030F080387105610509F03C5F3C5F3D9309
:10341000913008F08068911DDF93CF931F930F9335
:10342000FF92EF92192F987F9695E92F9695969592
:10343000E90FFF27EE53FF4F99273327EE24FF2490
:10344000A701E70105900894079428F4360FE71EBA
:10345000F81E491F511D660F771F881F991F06947C
:10346000A1F70590079428F4E70EF81E491F561F90
:10347000C11D770F881F991F661F0694A1F705903D
:10348000079428F4F80E491F561FC71FD11D880F37
:10349000991F661F771F0694A1F70590079420F4E3
:1034A000490F561FC71FD81F990F661F771F881F08
:1034B0000694A9F784911095177041F0D695C79599
:1034C00057954795F794E7941A95C1F7E8E6F0E029
:1034D00068941590159135916591959105907FE2CD
:1034E0007395E118F10A430B560BC90BD009C0F7CD
:1034F000E10CF11E431F561FC91FD01D7EF470330F
:1035000011F48A95E6CFE894015030F0080F0AF4E0
:103510000027021708F4202F2395022F7A3328F072
:1035200079E37D932A95E9F710C07D932A9589F672
:10353000069497956795379517951794E118F10AB2
:10354000430B560BC90BD00998F023957E917395C8
:103550007A3308F070E37C932013B8F77E917061A2
:103560007D9330F0839571E37D9370E32A95E1F7C5
:103570001124EF90FF900F911F91CF91DF91992728
:1035800087FD90950895DC01FC01672F71917723E9
:10359000E1F7329704C07C916D9370836291AE170E
:1035A000BF07C8F308950E94151B08F481E0089531
:1035B000E89409C097FB3EF49095809570956195CD
:1035C0007F4F8F4F9F4F9923A9F0F92F96E9BB2783
:1035D0009395F695879577956795B795F111F8CFFF
:1035E000FAF4BB0F11F460FF1BC06F5F7F4F8F4F6A
:1035F0009F4F16C0882311F096E911C0772321F060
:103600009EE8872F762F05C0662371F096E8862FF7
:1036100070E060E02AF09A95660F771F881FDAF74E
:10362000880F9695879597F90895990F0008550F7B
:10363000AA0BE0E8FEEF16161706E807F907C0F038
:1036400012161306E407F50798F0621B730B840B40
:10365000950B39F40A2661F0232B242B252B21F41A
:1036600008950A2609F4A140A6958FEF811D811DBA
:1036700008950E944C1B0C94BD1B0E94AF1B38F098
:103680000E94B61B20F0952311F00C94A61B0C94FD
:10369000AC1B11240C94F11B0E94CE1B70F3959F60
:1036A000C1F3950F50E0551F629FF001729FBB2739
:1036B000F00DB11D639FAA27F00DB11DAA1F649FD5
:1036C0006627B00DA11D661F829F2227B00DA11D88
:1036D000621F739FB00DA11D621F839FA00D611D0E
:1036E000221F749F3327A00D611D231F849F600D2F
:1036F000211D822F762F6A2F11249F5750409AF058
:10370000F1F088234AF0EE0FFF1FBB1F661F771FE3
:10371000881F91505040A9F79E3F510580F00C94AE
:10372000A61B0C94F11B5F3FE4F3983ED4F38695FF
:1037300077956795B795F795E7959F5FC1F7FE2B4E
:10374000880F911D9695879597F9089597F99F672A
:1037500080E870E060E008959FEF80EC0895002419
:103760000A941616170618060906089500240A94E6
:1037700012161306140605060895092E0394000C6C
:1037800011F4882352F0BB0F40F4BF2B11F460FFFB
:1037900004C06F5F7F4F8F4F9F4F089557FD905824
:1037A000440F551F59F05F3F71F04795880F97FB05
:1037B000991F61F09F3F79F08795089512161306BF
:1037C0001406551FF2CF4695F1DF08C016161706EE
:1037D0001806991FF1CF8695710561050894089523
:1037E000E894BB2766277727CB0197F908952F9296
:1037F0003F924F925F926F927F928F929F92AF9281
:10380000BF92CF92DF92EF92FF920F931F93CF93CD
:10381000DF93CDB7DEB7CA1BDB0B0FB6F894DEBF64
:103820000FBECDBF09942A88398848885F846E848A
:103830007D848C849B84AA84B984C884DF80EE80D4
:10384000FD800C811B81AA81B981CE0FD11D0FB6DD
:10385000F894DEBF0FBECDBFED0108950E94151B89
:1038600008F48FEF089597FB072E16F4009407D005
:1038700077FD09D00E94661C07FC05D03EF49095A8
:1038800081959F4F0895709561957F4F0895052EFE
:1038900097FB1EF400940E945E1C57FD07D00E9407
:1038A0007A1C07FC03D04EF40C945E1C5095409596
:1038B000309521953F4F4F4F5F4F089590958095DC
:1038C000709561957F4F8F4F9F4F0895AA1BBB1B2B
:1038D00051E107C0AA1FBB1FA617B70710F0A61B10
:1038E000B70B881F991F5A95A9F780959095BC0131
:1038F000CD010895A1E21A2EAA1BBB1BFD010DC02C
:10390000AA1FBB1FEE1FFF1FA217B307E407F5078F
:1039100020F0A21BB30BE40BF50B661F771F881F6B
:10392000991F1A9469F760957095809590959B0101
:10393000AC01BD01CF010895EE0FFF1F0590F4917A
:10394000E02D0994CF93DF938230910510F482E04B
:1039500090E0E091E004F091E10420E030E0C0E08C
:10396000D0E0309711F14081518148175907C0F0DC
:103970004817590761F482819381209719F09B833E
:103980008A832BC09093E1048093E00426C0211524
:10399000310519F04217530718F49A01BE01DF01EF
:1039A000EF010280F381E02DDCCF2115310509F113
:1039B000281B390B2430310590F412968D919C917F
:1039C00013976115710521F0FB019383828304C075
:1039D0009093E1048093E004FD01329644C0FD0120
:1039E000E20FF31F81939193225031092D933C9361
:1039F0003AC02091DE043091DF04232B41F4209162
:103A00000301309104013093DF042093DE04209100
:103A10000101309102012115310541F42DB73EB766
:103A20004091050150910601241B350BE091DE0405
:103A3000F091DF04E217F307A0F42E1B3F0B2817C9
:103A4000390778F0AC014E5F5F4F2417350748F017
:103A50004E0F5F1F5093DF044093DE0481939193D8
:103A600002C0E0E0F0E0CF01DF91CF9108950F9325
:103A70001F93CF93DF93009709F48CC0FC0132971A
:103A8000138212820091E0041091E10401151105E6
:103A900081F420813181820F931F2091DE043091C7
:103AA000DF042817390779F5F093DF04E093DE048B
:103AB00071C0D80140E050E0AE17BF0750F4129635
:103AC0002D913C911397AD012115310509F1D901D3
:103AD000F3CF9D01DA013383228360817181860FE8
:103AE000971F8217930769F4EC0128813981260F0B
:103AF000371F2E5F3F4F318320838A819B819383C1
:103B00008283452B29F4F093E104E093E00442C062
:103B10001396FC93EE931297ED01499159919E01F2
:103B2000240F351FE217F30771F480819181840F10
:103B3000951F029611969C938E9382819381139682
:103B40009C938E931297E0E0F0E0D80112968D914D
:103B50009C911397009719F0F8018C01F6CF8D9185
:103B60009C9198012E5F3F4F820F931F2091DE049E
:103B70003091DF042817390769F4309729F410923F
:103B8000E1041092E00402C0138212821093DF0459
:103B90000093DE04DF91CF911F910F910895A0E073
:103BA000B0E0E5EDFDE10C94FB1BEC01009721F486
:103BB000CB010E94A21CB8C0FC01E60FF71F9C01BC
:103BC00022503109E217F30708F4ACC0D9010D9176
:103BD0001C91119706171707B0F00530110508F46E
:103BE0009FC0C80104978617970708F499C0025030
:103BF0001109061B170B019311936D937C93CF0151
:103C00000E94371D8DC05B01A01AB10A4C01800EC5
:103C1000911EA091E004B091E10440E050E0E12C5D
:103C2000F12C109709F44AC0A815B905D1F56D908B
:103C30007C901197630182E0C80ED11CCA14DB048A
:103C400080F1A3014A195B096A0182E0C80ED11C08
:103C50001296BC9012971396AC91B5E0CB16D10496
:103C600040F0B282A38351834083D9016D937C934A
:103C70000AC00E5F1F4FC301800F911FF90191838E
:103C80008083EB2DFA2FE114F10431F0D701139664
:103C9000FC93EE93129744C0F093E104E093E004A8
:103CA0003FC08D919C9111974817590708F4AC01BA
:103CB0007D0112960D90BC91A02DB3CF8091DE04B2
:103CC0009091DF0488159905E1F446175707C8F469
:103CD0008091010190910201009741F48DB79EB748
:103CE0004091050150910601841B950BE817F907D7
:103CF000C8F4F093DF04E093DE04F901718360837C
:103D00000FC0CB010E94A21C7C01009759F0A801B2
:103D1000BE010E949E1ECE010E94371DC70104C035
:103D2000CE0102C080E090E0CDB7DEB7EEE00C94AB
:103D3000171C81E090E0F8940C94C61EFB01DC0196
:103D400002C001900D9241505040D8F70895FB01F8
:103D5000DC018D91019080190110D9F3990B089520
:103D6000FB01DC0101900D920020E1F70895FB01B9
:103D7000DC014150504048F001900D920020C9F7FD
:103D800001C01D9241505040E0F7089510E0CFEE81
:103D9000D0E004C0FE010E949C1C2196C03FD107C8
:063DA000C9F7F894FFCF03
:103DA600010000E204800000004000140054005EA0
:103DB60000BC007701000000008201200A1A01C938
:103DC600014B0129013D01000000002703F702C253
:103DD600029B02B902AA029C0200000000E703D47B
:103DE60003030400000000B404200AC202C102005A
:103DF6000000000E02200AC2020D0262027A02F5DB
:103E060001000000004B0A200AC202C1020500049C
:103E160000080009000A000B000C000D0006000255
:103E26000003002043003430313538333435004741
:103E36004947414E45542D47543633343500415495
:103E46002B43494653520D0A002B43494653523AD7
:103E560053544149502C0053656E736F722064654C
:103E66002074656D706572617475726120696E6922
:103E7600636961646F0053656E736F7220646520B9
:103E86006D6574616C2064657465637461646F004C
:103E96005B6D73675D3A00427566666572206F7288
:103EA6006967696E616C3A200D0A496E6963696FCC
:103EB6007C7C007C7C46696D0D0A007374617274AB
:103EC600007B22737461747573223A226F6B227DB4
:103ED600006F66660074656D70007B2273656E7395
:103EE6006F72223A22006D6F760053616964612019
:103EF6006E616F206964656E746966696361646189
:103F06000041542B43495053454E443D302C00410B
:103F1600542B5253540041542B43574A41503D228F
:103F260000222C220041542B43574D4F44453D005F
:103F360041542B43494653520041542B4349504D5B
:103F460055583D0041542B4349505345525645520E
:0C3F56003D312C0073656D206970000087
:00000001FF
